{
  "contractName": "DatteRegistry",
  "abi": [
    {
      "inputs": [],
      "stateMutability": "nonpayable",
      "type": "constructor"
    },
    {
      "inputs": [
        {
          "internalType": "uint256",
          "name": "",
          "type": "uint256"
        }
      ],
      "name": "dattes",
      "outputs": [
        {
          "internalType": "string",
          "name": "typeDeDatte",
          "type": "string"
        },
        {
          "internalType": "string",
          "name": "hashImageIPFS",
          "type": "string"
        },
        {
          "internalType": "string",
          "name": "localisation",
          "type": "string"
        },
        {
          "internalType": "string",
          "name": "producteur",
          "type": "string"
        },
        {
          "internalType": "string",
          "name": "dateDetection",
          "type": "string"
        },
        {
          "internalType": "uint8",
          "name": "confiance",
          "type": "uint8"
        },
        {
          "internalType": "address",
          "name": "auteur",
          "type": "address"
        }
      ],
      "stateMutability": "view",
      "type": "function",
      "constant": true
    },
    {
      "inputs": [],
      "name": "totalDattes",
      "outputs": [
        {
          "internalType": "uint256",
          "name": "",
          "type": "uint256"
        }
      ],
      "stateMutability": "view",
      "type": "function",
      "constant": true
    },
    {
      "inputs": [
        {
          "internalType": "string",
          "name": "_typeDeDatte",
          "type": "string"
        },
        {
          "internalType": "string",
          "name": "_hashImageIPFS",
          "type": "string"
        },
        {
          "internalType": "string",
          "name": "_localisation",
          "type": "string"
        },
        {
          "internalType": "string",
          "name": "_producteur",
          "type": "string"
        },
        {
          "internalType": "string",
          "name": "_dateDetection",
          "type": "string"
        },
        {
          "internalType": "uint8",
          "name": "_confiance",
          "type": "uint8"
        }
      ],
      "name": "enregistrerDatte",
      "outputs": [],
      "stateMutability": "payable",
      "type": "function",
      "payable": true
    },
    {
      "inputs": [
        {
          "internalType": "uint256",
          "name": "_id",
          "type": "uint256"
        }
      ],
      "name": "getDatte",
      "outputs": [
        {
          "internalType": "string",
          "name": "",
          "type": "string"
        },
        {
          "internalType": "string",
          "name": "",
          "type": "string"
        },
        {
          "internalType": "string",
          "name": "",
          "type": "string"
        },
        {
          "internalType": "string",
          "name": "",
          "type": "string"
        },
        {
          "internalType": "string",
          "name": "",
          "type": "string"
        },
        {
          "internalType": "uint8",
          "name": "",
          "type": "uint8"
        },
        {
          "internalType": "address",
          "name": "",
          "type": "address"
        }
      ],
      "stateMutability": "view",
      "type": "function",
      "constant": true
    },
    {
      "inputs": [],
      "name": "getContractBalance",
      "outputs": [
        {
          "internalType": "uint256",
          "name": "",
          "type": "uint256"
        }
      ],
      "stateMutability": "view",
      "type": "function",
      "constant": true
    }
  ],
  "bytecode": "0x608060405234801561001057600080fd5b506000600181905550611109806100286000396000f3fe60806040526004361061004a5760003560e01c80632e411fac1461004f5780635e135737146100925780636f9fb98a146100bd5780639c1b6bae146100e8578063c6d7c3aa14610104575b600080fd5b34801561005b57600080fd5b5061007660048036038101906100719190610c62565b610147565b6040516100899796959493929190610d97565b60405180910390f35b34801561009e57600080fd5b506100a7610541565b6040516100b49190610e69565b60405180910390f35b3480156100c957600080fd5b506100d2610547565b6040516100df9190610e69565b60405180910390f35b61010260048036038101906100fd9190610b61565b61054f565b005b34801561011057600080fd5b5061012b60048036038101906101269190610c62565b610715565b60405161013e9796959493929190610d97565b60405180910390f35b60608060608060606000806001548810610196576040517f08c379a000000000000000000000000000000000000000000000000000000000815260040161018d90610e29565b60405180910390fd5b60008060008a81526020019081526020016000206040518060e00160405290816000820180546101c590610f8c565b80601f01602080910402602001604051908101604052809291908181526020018280546101f190610f8c565b801561023e5780601f106102135761010080835404028352916020019161023e565b820191906000526020600020905b81548152906001019060200180831161022157829003601f168201915b5050505050815260200160018201805461025790610f8c565b80601f016020809104026020016040519081016040528092919081815260200182805461028390610f8c565b80156102d05780601f106102a5576101008083540402835291602001916102d0565b820191906000526020600020905b8154815290600101906020018083116102b357829003601f168201915b505050505081526020016002820180546102e990610f8c565b80601f016020809104026020016040519081016040528092919081815260200182805461031590610f8c565b80156103625780601f1061033757610100808354040283529160200191610362565b820191906000526020600020905b81548152906001019060200180831161034557829003601f168201915b5050505050815260200160038201805461037b90610f8c565b80601f01602080910402602001604051908101604052809291908181526020018280546103a790610f8c565b80156103f45780601f106103c9576101008083540402835291602001916103f4565b820191906000526020600020905b8154815290600101906020018083116103d757829003601f168201915b5050505050815260200160048201805461040d90610f8c565b80601f016020809104026020016040519081016040528092919081815260200182805461043990610f8c565b80156104865780601f1061045b57610100808354040283529160200191610486565b820191906000526020600020905b81548152906001019060200180831161046957829003601f168201915b505050505081526020016005820160009054906101000a900460ff1660ff1660ff1681526020016005820160019054906101000a900473ffffffffffffffffffffffffffffffffffffffff1673ffffffffffffffffffffffffffffffffffffffff1673ffffffffffffffffffffffffffffffffffffffff16815250509050806000015181602001518260400151836060015184608001518560a001518660c00151975097509750975097509750975050919395979092949650565b60015481565b600047905090565b662386f26fc10000341015610599576040517f08c379a000000000000000000000000000000000000000000000000000000000815260040161059090610e49565b60405180910390fd5b6040518060e001604052808781526020018681526020018581526020018481526020018381526020018260ff1681526020013373ffffffffffffffffffffffffffffffffffffffff1681525060008060015481526020019081526020016000206000820151816000019080519060200190610615929190610a2c565b506020820151816001019080519060200190610632929190610a2c565b50604082015181600201908051906020019061064f929190610a2c565b50606082015181600301908051906020019061066c929190610a2c565b506080820151816004019080519060200190610689929190610a2c565b5060a08201518160050160006101000a81548160ff021916908360ff16021790555060c08201518160050160016101000a81548173ffffffffffffffffffffffffffffffffffffffff021916908373ffffffffffffffffffffffffffffffffffffffff1602179055509050506001600081548092919061070890610fbe565b9190505550505050505050565b600060205280600052604060002060009150905080600001805461073890610f8c565b80601f016020809104026020016040519081016040528092919081815260200182805461076490610f8c565b80156107b15780601f10610786576101008083540402835291602001916107b1565b820191906000526020600020905b81548152906001019060200180831161079457829003601f168201915b5050505050908060010180546107c690610f8c565b80601f01602080910402602001604051908101604052809291908181526020018280546107f290610f8c565b801561083f5780601f106108145761010080835404028352916020019161083f565b820191906000526020600020905b81548152906001019060200180831161082257829003601f168201915b50505050509080600201805461085490610f8c565b80601f016020809104026020016040519081016040528092919081815260200182805461088090610f8c565b80156108cd5780601f106108a2576101008083540402835291602001916108cd565b820191906000526020600020905b8154815290600101906020018083116108b057829003601f168201915b5050505050908060030180546108e290610f8c565b80601f016020809104026020016040519081016040528092919081815260200182805461090e90610f8c565b801561095b5780601f106109305761010080835404028352916020019161095b565b820191906000526020600020905b81548152906001019060200180831161093e57829003601f168201915b50505050509080600401805461097090610f8c565b80601f016020809104026020016040519081016040528092919081815260200182805461099c90610f8c565b80156109e95780601f106109be576101008083540402835291602001916109e9565b820191906000526020600020905b8154815290600101906020018083116109cc57829003601f168201915b5050505050908060050160009054906101000a900460ff16908060050160019054906101000a900473ffffffffffffffffffffffffffffffffffffffff16905087565b828054610a3890610f8c565b90600052602060002090601f016020900481019282610a5a5760008555610aa1565b82601f10610a7357805160ff1916838001178555610aa1565b82800160010185558215610aa1579182015b82811115610aa0578251825591602001919060010190610a85565b5b509050610aae9190610ab2565b5090565b5b80821115610acb576000816000905550600101610ab3565b5090565b6000610ae2610add84610eb5565b610e84565b905082815260208101848484011115610afa57600080fd5b610b05848285610f4a565b509392505050565b600082601f830112610b1e57600080fd5b8135610b2e848260208601610acf565b91505092915050565b600081359050610b46816110a5565b92915050565b600081359050610b5b816110bc565b92915050565b60008060008060008060c08789031215610b7a57600080fd5b600087013567ffffffffffffffff811115610b9457600080fd5b610ba089828a01610b0d565b965050602087013567ffffffffffffffff811115610bbd57600080fd5b610bc989828a01610b0d565b955050604087013567ffffffffffffffff811115610be657600080fd5b610bf289828a01610b0d565b945050606087013567ffffffffffffffff811115610c0f57600080fd5b610c1b89828a01610b0d565b935050608087013567ffffffffffffffff811115610c3857600080fd5b610c4489828a01610b0d565b92505060a0610c5589828a01610b4c565b9150509295509295509295565b600060208284031215610c7457600080fd5b6000610c8284828501610b37565b91505092915050565b610c9481610f01565b82525050565b6000610ca582610ee5565b610caf8185610ef0565b9350610cbf818560208601610f59565b610cc881611094565b840191505092915050565b6000610ce0600b83610ef0565b91507f494420696e76616c6964650000000000000000000000000000000000000000006000830152602082019050919050565b6000610d20602e83610ef0565b91507f556e206d696e696d756d20646520706169656d656e7420646520302e3031204560008301527f544820657374207265717569732e0000000000000000000000000000000000006020830152604082019050919050565b610d8281610f33565b82525050565b610d9181610f3d565b82525050565b600060e0820190508181036000830152610db1818a610c9a565b90508181036020830152610dc58189610c9a565b90508181036040830152610dd98188610c9a565b90508181036060830152610ded8187610c9a565b90508181036080830152610e018186610c9a565b9050610e1060a0830185610d88565b610e1d60c0830184610c8b565b98975050505050505050565b60006020820190508181036000830152610e4281610cd3565b9050919050565b60006020820190508181036000830152610e6281610d13565b9050919050565b6000602082019050610e7e6000830184610d79565b92915050565b6000604051905081810181811067ffffffffffffffff82111715610eab57610eaa611065565b5b8060405250919050565b600067ffffffffffffffff821115610ed057610ecf611065565b5b601f19601f8301169050602081019050919050565b600081519050919050565b600082825260208201905092915050565b6000610f0c82610f13565b9050919050565b600073ffffffffffffffffffffffffffffffffffffffff82169050919050565b6000819050919050565b600060ff82169050919050565b82818337600083830152505050565b60005b83811015610f77578082015181840152602081019050610f5c565b83811115610f86576000848401525b50505050565b60006002820490506001821680610fa457607f821691505b60208210811415610fb857610fb7611036565b5b50919050565b6000610fc982610f33565b91507fffffffffffffffffffffffffffffffffffffffffffffffffffffffffffffffff821415610ffc57610ffb611007565b5b600182019050919050565b7f4e487b7100000000000000000000000000000000000000000000000000000000600052601160045260246000fd5b7f4e487b7100000000000000000000000000000000000000000000000000000000600052602260045260246000fd5b7f4e487b7100000000000000000000000000000000000000000000000000000000600052604160045260246000fd5b6000601f19601f8301169050919050565b6110ae81610f33565b81146110b957600080fd5b50565b6110c581610f3d565b81146110d057600080fd5b5056fea26469706673582212206c011d4e02d58cbca6deee3401745a31b3148d14ee2d6ebc3e05ba8f5080a65364736f6c63430008000033",
  "immutableReferences": {},
  "source": "// SPDX-License-Identifier: MIT\npragma solidity ^0.8.0;\n\ncontract DatteRegistry {\n    struct Datte {\n        string typeDeDatte;\n        string hashImageIPFS;\n        string localisation;\n        string producteur;\n        string dateDetection;\n        uint8 confiance;\n        address auteur;\n    }\n\n    mapping(uint256 => Datte) public dattes;\n    uint256 public totalDattes;\n\n    constructor() {\n        totalDattes = 0;\n    }\n\n    //  Fonction d'enregistrement avec paiement minimum requis\n    function enregistrerDatte(\n        string memory _typeDeDatte,\n        string memory _hashImageIPFS,\n        string memory _localisation,\n        string memory _producteur,\n        string memory _dateDetection,\n        uint8 _confiance\n    ) public payable {\n        require(msg.value >= 0.01 ether, \"Un minimum de paiement de 0.01 ETH est requis.\");\n\n        dattes[totalDattes] = Datte(\n            _typeDeDatte,\n            _hashImageIPFS,\n            _localisation,\n            _producteur,\n            _dateDetection,\n            _confiance,\n            msg.sender\n        );\n        totalDattes++;\n    }\n\n    //  Fonction pour rcuprer une datte enregistre\n    function getDatte(uint256 _id)\n        public\n        view\n        returns (\n            string memory,\n            string memory,\n            string memory,\n            string memory,\n            string memory,\n            uint8,\n            address\n        )\n    {\n        require(_id < totalDattes, \"ID invalide\");\n        Datte memory d = dattes[_id];\n        return (\n            d.typeDeDatte,\n            d.hashImageIPFS,\n            d.localisation,\n            d.producteur,\n            d.dateDetection,\n            d.confiance,\n            d.auteur\n        );\n    }\n\n    //  Voir le solde ETH accumul dans le contrat\n    function getContractBalance() public view returns (uint256) {\n        return address(this).balance;\n    }\n}\n",
  "sourcePath": "C:\\Users\\USER\\blockchain\\truffle\\contracts\\DatteRegistry.sol",
  "compiler": {
    "name": "solc",
    "version": "0.8.0+commit.c7dfd78e.Emscripten.clang"
  },
  "schemaVersion": "3.4.16",
  "updatedAt": "2025-05-03T23:35:46.880Z",
  "networkType": "ethereum",
  "devdoc": {
    "kind": "dev",
    "methods": {},
    "version": 1
  },
  "userdoc": {
    "kind": "user",
    "methods": {},
    "version": 1
  }
}